:020000040C00EE
:1000000000C8FF1F010200089B0200089B020008B5
:100010009B0200089B0200089B02000800000000F1
:100020000000000000000000000000009B0200082B
:100030009B020008000000009B0200089B020008D1
:100040009B0200089B0200089B0200089B0200081C
:100050009B0200089B0200089B0200089B0200080C
:100060009B020008000000000000000000000000EB
:100070009B020008000000009B0200089B02000891
:100080009B0200089B0200089B0200089B020008DC
:100090009B0200089B0200089B0200089B020008CC
:1000A0009B020008F191020800000000000000001F
:1000B0000000000000000000000000000000000040
:1000C0000000000000000000000000000000000030
:1000D0000000000000000000000000000000000020
:1000E00000000000000000009B0200089B020008C6
:1000F0009B0200089B0200089B020008D10B02082B
:100100009B0200089B0200089B0200089B0200085B
:1001100000000000000000000000000000000000DF
:1001200000000000000000000000000000000000CF
:100130009B0200089B0200089B0200089B0200082B
:1001400000000000000000000000000000000000AF
:100150009B0200089B020008000000000000000055
:100160009B0200089B0200089B0200089B020008FB
:100170009B0200089B0200089B0200089B020008EB
:100180009B0200089B0200089B0200089B020008DB
:100190009B0200089B0200089B0200089B020008CB
:1001A0009B0200089B0200089B0200089B020008BB
:1001B0009B0200089B0200089B0200089B020008AB
:1001C000000000000000000000000000000000002F
:1001D00000000000000000009B020008000000007A
:1001E0009B02000895910208000000009B02000895
:1001F00000000000000000000000000000000000FF
:10020000DFF870D01C4880471C4C1D4DAC4209DA09
:1002100021686268A368043BA2BFC858D050FAE7BF
:100220000C34F3E7174B184CA34208DA19685A68E4
:100230000020043AA4BF8850FBE70833F4E71348D2
:1002400080471348804713488047000024B4020CBD
:1002500000C8FF1F4001000024B4020C00C8FF1FAB
:100260000000000040C9FF1FE8700000283A00208D
:100270000000000000C8FF1F715502084C02000872
:100280006402000864020008740200089902000871
:0C029000B97D02089D0A02087047FEE7D5
:020000040C02EC
:1000000008B500F007F800F02BF8BDE8084000F054
:1000100097BB00BF10B50E4C204606F0E3F80D4A22
:100020000021204606F0EEF802220021204606F0CC
:10003000E1F900221146204606F044FA064B04225C
:10004000E2611A68054B22601B68A36010BD00BF07
:1000500000400150188502084CC8FF1F48C8FF1F08
:100060002DE9F04FDC4CDD4ADD4885B0012105F07B
:1000700033FEDC49204605F0C1FD002800F01F8357
:10008000D94CDA4EDA4FDFF8FC83DFF8FC932046D8
:10009000002105F0D3FE4FF480733046E360D5496C
:1000A00005F0FCFE49F63F43F363204673634FF0CF
:1000B000806105F0EBFE072323613046CE4A012123
:1000C00005F022FF3046CD4A022105F01DFF3046E3
:1000D000CB4A032105F018FF01221146304605F0F6
:1000E000F7FE02221146304605F000FF032230469B
:1000F000022105F043FFD6F8A430012543F00403A4
:10010000C6F8A430E560002434672146384605F07F
:1001100095FE06F580464FF480734FF6FF7AFB603C
:100120003046B84905F0BAFEF4633846C6F834A044
:100130004FF0806105F0AAFE07233B612946304657
:10014000B14A05F0E1FE3046B04A022105F0DCFE7E
:10015000AF4A3046032105F0D7FE4046FD60AD4969
:10016000346705F09BFEC8F83C403846C8F834A018
:100170004FF0006105F08AFE70233B61404629463E
:10018000A54A05F0C1FE4046A44A0221022605F018
:10019000BBFE4046A24A032105F0B6FEFE6048467B
:1001A000C8F870409F4905F079FEC9F83C403846D0
:1001B000C9F834A04FF0805105F068FE4FF4E063B9
:1001C0003B6129464846984A05F09EFE314648461E
:1001D000964A08F5007805F097FE4FF0040B944A14
:1001E0004846032105F090FEC7F80CB04046C9F818
:1001F0007040904905F052FEC8F83C403846C8F8B7
:1002000034A04FF0005105F041FE4FF4E0433B6154
:1002100029464046884ADFF874A205F075FE31464B
:100220004046864A05F070FE854A4046032109F59E
:100230007D4905F069FE0823FB602146C8F870403F
:10024000484605F0C7FE4FF48073C9F80C3050469D
:100250007C4905F0DBFECAF83C405046CAF84440F1
:100260004FF47A6105F062FF48464FF0806105F077
:10027000EBFE0723C9F8103029465046724A05F0B4
:100280001BFF31465046714A05F016FF5046704A32
:10029000032105F011FF2A462946504605F0DCFEF1
:1002A00032463146504607F5813705F0E3FEC9F87E
:1002B0000C505046674905F06BFF3846CAF870404D
:1002C0006549DFF8CCA105F0A1FEFC6338467C64EB
:1002D0004FF47A6105F02AFF48464FF0006105F0BF
:1002E000B3FE7023C9F81030384629465B4A05F042
:1002F000E3FE384631465A4A05F0DEFE3846594A92
:10030000032105F0D9FE38462A46294605F0A4FE09
:1003100038463246314605F0ADFE38462A46294673
:1003200008F57F4805F0B4FE3846C9F80C604E4920
:1003300005F02EFF3C6740464C4905F067FEC8F8C3
:100340003C404046C8F844404FF47A6105F0EEFE68
:1003500048464FF0805105F077FE4FF4E063C9F84E
:10036000103029464046424A05F0A6FE3146404636
:10037000404A05F0A1FE40463F4A032105F09CFE9D
:100380002A462946404605F067FE32463146404639
:1003900005F070FE2A462946404607F5007705F02D
:1003A00077FEC9F80CB04046344905F0F1FEC8F8B4
:1003B000704038463249DFF8DC8005F027FE4FF404
:1003C0007A62FA6338467A6441F63F7105F0AEFE10
:1003D00048464FF000515FE00042014800B4C404B9
:1003E00000400148A886020800C0004000C100404B
:1003F00000000140948602089C860208A08602083C
:10040000A4860208E0850208E8850208EC85020857
:10041000F0850208CC850208D4850208D885020838
:10042000DC85020808860208108602081486020885
:1004300018860208F4850208FC8502080086020876
:10044000048602086C860208888602088C860208E8
:10045000908602087C8602084486020860860208AC
:100460006486020868860208548602081C86020810
:10047000388602083C860208408602082C8602085C
:100480007C85020800020140000301400001024097
:1004900020C8FF1F0048004005F0D6FD4FF4E043A0
:1004A000C9F8103029463846954A05F005FE314610
:1004B0003846944A05F000FE3846934A032105F079
:1004C000FBFD2A462946384605F0C6FD3246314630
:1004D000384605F0CFFD32463146384605F028FE55
:1004E00059463846032205F023FED7F8A420874951
:1004F00042EA0B02C7F8A420D7F8A420082342F050
:100500001002C7F8A420C9F80C303C6707F57E47F5
:100510002246384606F02AF8FB69DFF8209223F0DD
:100520005003FB61FB6923F00703FB61FB6B23F4C2
:10053000F85343F40063FB6348F2F2233B610F235B
:100540002246029321463846CDE900441F2306F097
:1005500049F93B6C6E4923F00F0333433B646D4F05
:100560004FF04020C9E90144CAE9014406F052F9BC
:100570005146384606F07EF9494640464FF040293C
:1005800006F078F93846032106F0E8F940460321E1
:1005900006F0E4F9D9F8803043F48033C9F88030AC
:1005A000D9F8803043F40033C9F880302246214620
:1005B000484606F04DF922462946484606F048F9D5
:1005C000D7F8043123F00303C7F80431D7F8043116
:1005D0002B43C7F804312146384606F00FFA294666
:1005E000384606F00BFA3146384606F007FA384628
:1005F000032106F003FAD7F88430474923F08073CB
:10060000C7F88430384606F0B1F9A423C7F8804211
:10061000C7F88442C7F88842C7F88C42C7F810313F
:100620002523C7F810312623C7F810316723C7F8F0
:10063000103159463846394A06F0E8F93846384A02
:10064000052106F0E3F93846364A062106F0DEF9C0
:10065000354A3846072106F0D9F9D8F8043123F095
:100660000303C8F80431D8F804312B43C8F8043127
:100670002146404606F0C2F92946404606F0BEF93A
:100680003146404606F0BAF94046032106F0B6F975
:10069000D8F88430254923F080734046C8F8843068
:1006A00006F064F9224AC8F88042E3230321404659
:1006B000C8F8103105B0BDE8F04F06F0A7B92368BF
:1006C00043F040032360236843F001032360236861
:1006D00023F080032360E368024623F00703E3600E
:1006E0001448114605F0EAFA134805F023FB236885
:1006F00023F040032360236823F001032360BFE459
:100700008C8502089085020894850208C08502083D
:10071000B486020800440040A88502083C8502080F
:100720004C8502085C8502086C850208B4850208C5
:10073000988502080040014800C8FF1F34C8FF1F09
:1007400038B58B4D8B4A8C4C2846002104F0A6FF0F
:1007500000221146284605F0FBFE2846874A012163
:1007600004F09CFF28460022012105F0F1FE2846F6
:10077000834A022104F092FF28460022022105F05C
:10078000E7FE28467F4A032104F088FF284600221E
:10079000032105F0DDFE28467B4A042104F07EFF9C
:1007A00028460022042105F0D3FE2846774A052179
:1007B00004F074FF28460022052105F0C9FE2846F2
:1007C000734A062104F06AFF28460022062105F03C
:1007D000BFFE28466F4A082104F060FF2846002229
:1007E000082105F0B5FE20466B4A002104F056FFB3
:1007F00000221146204605F0ABFE2046674A032141
:1008000004F04CFF20460022032105F0A1FE204603
:10081000634A042104F042FF20460022042105F02F
:1008200097FE20465F4A052104F038FF204600224B
:10083000052105F08DFE20465B4A062104F02EFFBF
:1008400020460022062105F083FE2046574A072154
:1008500004F024FF20460022072105F079FE2046FF
:10086000534A082104F01AFF20460022082105F00F
:100870006FFE20464F4A092105F5807504F00EFFF2
:1008800020460022092105F063FE28464A4A00213D
:1008900004F004FF00221146284605F059FE2846C0
:1008A000464A012104F0FAFE28460022012105F003
:1008B0004FFE2846424A022104F0F0FE284600225C
:1008C000022105F045FE28463E4A032104F0E6FEDB
:1008D00028460022032105F03BFE28463A4A04211F
:1008E00004F0DCFE28460022042105F031FE2846F3
:1008F000364A0521A4F5406404F0D0FE28460022C3
:10090000052105F025FE2046314A002104F0C6FEEF
:1009100000221146204605F01BFE20462D4A0221EA
:1009200004F0BCFE20460022022105F011FE204604
:10093000294A032104F0B2FE20460022032105F0DB
:1009400007FE2046254A042104F0A8FE2046002286
:10095000042105F0FDFD2046214A052104F09EFEFC
:1009600020460022BDE83840052105F0F1BD00BF5A
:100970000080024880870208008E0248988702089B
:10098000B0870208748702088C870208A4870208CF
:1009900068870208C8870208D487020820870208EF
:1009A0002C87020838870208F887020804880208A2
:1009B000E0870208EC8702085087020814870208C3
:1009C00008870208FC860208BC870208CC86020859
:1009D000D8860208E4860208448702085C87020879
:1009E000F086020810B586B00B4B0C48019001212F
:1009F0004FF48032002401A8CDE90423CDE902445C
:100A00008DF80A1004F0F0FF204604F0C9FE102013
:100A100004F0D6FE06B010BD02010101140102016E
:100A2000004870470024F400704700BF044B4FF4A7
:100A3000C1610522A3F8B61083F8B820704700BF43
:100A400040C9FF1F10B50E480E4C0022012105F0D1
:100A500003FB0D480022012105F0FEFA0B4800229D
:100A6000012105F0F9FA20460022012105F0F4FAEF
:100A700020460022BDE81040012105F0EDBA00BF7C
:100A80000003024000040240000202400001024054
:100A900008B5FFF7B5FA002008BD00BF10B51D4C22
:100AA000FFF7F6FFE36C1C4943F4807343F0010346
:100AB000E364D1F8B03040F601421343C1F8B030DE
:100AC000A1F5407104F17044D1F8B03004F5E1347F
:100AD0001343C1F8B030D4F8B0301343C4F8B03089
:100AE000D1F8B0321343C1F8B03200B101BE0B48A7
:100AF00006F012F800B101BE00F03AF803F04CFA2B
:100B0000074807F09DF862B64FF47A7005F04AFB8B
:100B1000FAE700BF0040005000040240000203401A
:100B200010880208000000000230800803D0013065
:100B30000238FCD100BF00BF7047EFF3108072B6DF
:100B4000704780F31088704710B5064B064C5B6BFE
:100B50002361204605F042F92046BDE8104005F02B
:100B60005BB900BF40C9FF1F00C8FF1F00F066BA95
:100B70000C4B0D490D4A0E4810B4C3E900120D4C40
:100B80000D490E4AC3E90240C3E904120C4C0D485A
:100B90000D490E4AC3E90640C3E908125DF8044B4B
:100BA000704700BF8CD1FF1F6D0B0208F10C0208CB
:100BB0000D0D0208010D0208790D0208FD10020852
:100BC000C1110208F5120208B1120208359202089A
:100BD00070B53E4C3E4994F947303E4A4FF40070A0
:100BE0004860002B4FF00401C2F8B01009DB5A092D
:100BF000394803F01F030121603201FA03F340F882
:100C000022303649364E0B6F356F0A6F9BB290B269
:100C10008342F8D1636BADB245EA0245012B03F183
:100C20000102C4F8985062634DD02E4B2E495A6A87
:100C30002E4891F8F0302A4E6FEA121262F38203C6
:100C4000027943F3800565F302026FF3410381F8F3
:100C5000F030027103F016FAFFF776FF1F490B6FB1
:100C6000356F0A6F9BB290B28342F8D1D4F89830B6
:100C7000D4ED217A94ED246AD4ED2B6AADB245EA25
:100C80000245EB1A07EE103AF8EEE77AB8EEC77AAB
:100C900067EE867A27EE267A94ED256AD4ED2C6AE3
:100CA0000B4AC4ED227A26EE276A66EE876A4FF079
:100CB0000071C4E9275384ED236A84ED297AC4EDD9
:100CC0002A6A516070BDFFF7BDFEAEE740C9FF1F45
:100CD000008E024800C1004000E100E00002014037
:100CE00000010140008202481CD7FF1F68CEFF1F91
:100CF00008B5FFF722FF014B986408BD40C9FF1FEC
:100D0000014B986CFFF71DBF40C9FF1F10B5194C70
:100D10004FF480334FF400226260204663608022EB
:100D2000032105F003FC20468022002105F0FEFB94
:100D30004FF400334FF480126260204663608022DB
:100D4000042105F0F3FB20468022012105F0EEFB93
:100D50004FF400124FF48023626020468022052168
:100D6000636005F0E3FB20468022BDE810400221CD
:100D700005F0DCBB0080024808B51048982200212D
:100D800005F0D4FB0D489822032105F0CFFB0B485A
:100D90009822012105F0CAFB08489822042105F099
:100DA000C5FB06489822022105F0C0FBBDE80840BB
:100DB00002489822052105F0B9BB00BF0080024817
:100DC000224BDFED236A93EDBB7A224B10B593E8FB
:100DD000070084B001ACC6EE877A84E807009DF86E
:100DE00009201D4B1D484FF0080C6CF303028DF8D1
:100DF00009209DF80C2042F004028DF80C20184ABE
:100E0000DA60184A1A614FF0665221465A61164A52
:100E1000C3ED027A9A6105F0A9FD144B93E807002F
:100E200084E807009DF809209DF80C3010484FF029
:100E3000090C6CF3030243F0040321468DF80920EA
:100E40008DF80C3005F092FD04B010BDC0D1FF1F2D
:100E5000CECC0C38A885020840C9FF1F00440040D2
:100E60003333113C3433533C0100A53DB4850208B3
:100E700000480040F8B504F077FC644B644C1B7BE1
:100E8000644D654F03F00F03D84007EE900AF8EE6B
:100E9000677AC4ED007A04F067FCD4ED007A5F4A0B
:100EA0005F4B166E1B79C4F8B060F0EE006A86EEF8
:100EB000A77A03F00F03D8400021A1626163594E65
:100EC000D2ED136A84ED247A67EEA67A84ED2B7A4C
:100ED000FCEEE77A17EE903A07EE900A23F0010352
:100EE000C4E90713F8EE677A516D4F48C4F89410BF
:100EF000116DC0ED037AD06DC4ED017A03FB01F1F1
:100F000001FB00F007EE101AE162A0635B08F8EE47
:100F1000476A07EE903A07EE100AD5F8B430C4EDF0
:100F20000C6AF8EEE77AB8EE477A23F0060343F04E
:100F300002030139C4ED097A84ED0F7A2846C5F819
:100F4000B43089B205F0F2F8236AE16AC3F34F03C3
:100F5000EB63D5F8B43023F0060343F00203013904
:100F6000C5F8B430284689B205F0E0F8216AC1F32B
:100F70004F036B64D7F8B430490823F0060343F0FD
:100F80000203013989B23846C7F8B43005F0CEF80B
:100F9000216AC1F38F03FB637B64D6F8B430490840
:100FA00023F0060343F00203013989B23046C6F844
:100FB000B43005F0BBF8216AA5F54075C1F38F0385
:100FC000F3637364D5F8B430490823F0060343F0A3
:100FD00002030139C5F8B43089B2284605F0A6F8F5
:100FE000A36B226A11491248013BC2F38F029BB2E4
:100FF000EA6341F211146A644B63CB630D4B0461E5
:101000000D4A012041F8F00CDA63F8BD1C86020895
:1010100040C9FF1F0004024000030240C0D1FF1F6F
:10102000088602080002024010CFFF1F00C10040E6
:10103000000002401CD7FF1F28CDFF1F2549264B6B
:10104000264A49682DE9F041254C11600025042607
:1010500083F86953234F83F8195383F82F6341F6BC
:101060006913A4F844302F2384F84730FFF7A8FE13
:1010700097F8DC121C4A1D4BA4F8B6604FF001082B
:10108000414518BF13461A4E1A4A84F8B8801360B7
:1010900098472946304684F8B48005F003FA29467B
:1010A000304605F007FA40F20113C6F8A033FFF707
:1010B000E1FED7ED157AFCEEE77A17EE900A03F021
:1010C000B5FE0D4A92F8F03043EA080382F8F0309A
:1010D000BDE8F0810040005000E100E0B4D1FF1F06
:1010E00040C9FF1FC0D1FF1F290A02082D0A0208AC
:1010F0000040015058C8FF1F1CD7FF1F38B5FFF72D
:101100001CFD274A92F944309064002B08DB2548E7
:101110005C09012103F01F0301FA03F340F82430B6
:1011200092F94530002B08DB1E485C09012103F0D1
:101130001F0301FA03F340F8243092F94730002BE3
:1011400008DB18485C09012103F01F0301FA03F3CF
:1011500040F824301449154D1548164C0123CB6036
:10116000CB60EB60C3601448E360C360A4F57D44CA
:1011700000F58440E360A0F50070A4F50074C0F8A9
:101180000C32E360C3600D4B906C4FF480345C60B4
:101190000021BDE8384051639162FFF7D2BC00BF27
:1011A00040C9FF1F00E100E00004024000030240CC
:1011B000000202400001024000C1004000810248DC
:1011C0002DE9F047FFF7B9FC2D4B2E4A2E4DDFF8E5
:1011D000CCA0DFF8CC90DFF8CC80DFF8CCE0DFF8F3
:1011E000CCC02A4F2A4E01245C6092F947109064CB
:1011F000284803230029CAF81030C9F81030C8F86D
:101200001030CEF81030CCF810303B613361036100
:101210002B612B610BDB4B0901F01F018C4020334C
:101220001D4941F82340BFF34F8FBFF36F8F92F9F1
:101230004530002B0DDB5909174C0120203103F0FC
:101240001F0300FA03F344F82130BFF34F8FBFF3BD
:101250006F8F92F94430002B0DDB59090E4C0120A1
:10126000203103F01F0300FA03F344F82130BFF3E9
:101270004F8FBFF36F8FBDE8F047906CFFF761BCF5
:101280000081024840C9FF1F0004024000010240E3
:10129000000202400003024000E100E000010140C2
:1012A00000020140000301400004014000C1004071
:1012B00038B50F4C94F8403005466BB194F84100B6
:1012C00008B1002038BD4FF4AB62294603F0B6FFE9
:1012D00004F044F8012038BD4FF4805104F142007D
:1012E00003F086FE012384F8410084F84030E7E7EC
:1012F00040C9FF1F30B5154D83B095F8403002ACA2
:1013000004E903001446ABB195F8410010B1002088
:1013100003B030BD4FF4AB62214603F0D5FF226825
:10132000009B9A42F3D16268019B9A42EFD101205F
:1013300003B030BD4FF4805105F1420003F058FE78
:10134000012385F8410085F84030DFE740C9FF1FE1
:10135000D1ED002AC0ED062A92ED007A80ED097ADF
:10136000D1ED013AC0ED073A92ED014A80ED0A4A0B
:10137000D1ED027AC0ED087A92ED023A80ED000AD2
:1013800020EE006AA0EE047A63EE066AF7EE005AD9
:1013900036EE877A67EE867A85EE876AF0EE674AE0
:1013A00037EEA75A76EEA65AE0EE234AA0EE235A6D
:1013B000E0EE045A74EEA24A27EE067A64EE864AFC
:1013C00026EE455A65EEC65A67EE867A66EE866A5E
:1013D00080ED0B3AC0ED0C4A80ED0F7A80ED0D5A8E
:1013E000C0ED105AC0ED0E7AC0ED116A704700BF13
:1013F000C0ED010A91ED006A80ED026AD2ED006A4B
:10140000C0ED046AD1ED014AF7EE007AC0ED034A5F
:1014100092ED015AC7EEA43A00B587B003AA694617
:1014200087EE867AC7EEA65A87EE854A66EE856A0B
:1014300026EE246ACDED037AC0EE864A87EEA66AD0
:1014400077EE237A35EE847A67EEA07A80ED055A3E
:10145000CDED000A8DED047ACDED017ACDED024A95
:101460008DED056AFFF774FF07B05DF804FB00BF60
:10147000D0ED0C7AD0ED0D6A90ED0E7A77EEA67A6B
:1014800077EE877A80EE277A80ED127A80ED137AF4
:10149000704700BF034BD3ED017A20EE270A83ED9E
:1014A000080A70472CCDFF1F0D4A38B50D4DA2F527
:1014B000797494ED150A2846F7EE000AA2F10801A6
:1014C000FFF796FFD4EDFB0AD4ED161A20EEA01A12
:1014D00005F15C00B0EE410ABDE8384001F0C4BE41
:1014E000A4D5FF1F08CAFF1F10B50C4C2DED028BB1
:1014F0009FED0B8A2046B0EE480AFFF7B9FF04F1D2
:101500005C0001F0ADFE074B83ED0E8A83ED0F8A80
:1015100083ED108ABDEC028B10BD00BF08CAFF1F0F
:10152000000000002CCDFF1F38B51E4C1E4DD4ED21
:10153000167A04F58463D3ED000A04F5856204F598
:1015400083632DED028BD2ED001AB0EE408A60EE7F
:10155000A70A93ED000A60EE880A28EE000AB1EEB1
:10156000611A284600F046FA04F22443D3ED000A3B
:10157000D4ED167A04F22C4304F21C4494ED000AD4
:10158000D3ED001A60EEA70A28EE000A60EE880A82
:10159000BDEC028B05F12000B1EE611ABDE83840C8
:1015A00000F028BAC0D1FF1FBCCAFF1F10B5054C00
:1015B000204600F019FA04F12000BDE8104000F0C8
:1015C00013BA00BFBCCAFF1F70B5204D204C95ED6B
:1015D000167AD5ED0F7A95ED096AD5ED106A1D4B97
:1015E0001D4AD5ED190A166895EDC20AC7EE275AAD
:1015F00004F1380095ED117AD5EDBF7AC3ED025AAA
:1016000066EE866A27EE067A67EE867AC3ED006A92
:1016100083ED017AC4ED0D7AB04704F14800D5EDB1
:10162000190A95EDC20AB04700220023C4E9042339
:1016300040F29F1041F6FF520023C4E906026021E8
:101640004022C4E90813C4E90A2370BDC0D1FF1FBA
:1016500068CEFF1FC0CEFF1F20880208094A0A4B30
:1016600000210020C2E90001C2E90201002182F844
:101670003010064A1975126A9A614FF0000CC3F8CF
:101680000CC0704768CEFF1FC0CEFF1FC0D1FF1F28
:10169000F8B5554B554DD3ED036A93ED007AF1EE55
:1016A000E67AF4EEC77AF1EE10FAC3ED047AC5EDEE
:1016B000307A07DB1A7D2AB94D4E0121726A1975FD
:1016C0009A6107E093ED017AF4EEC77AF1EE10FA31
:1016D00060D4474E474C95ED4D7AD4ED0D6A237892
:1016E000F4EEE67AD6EDC17AF1EE10FAACBF012243
:1016F0000022B4EEE77A62F30003F1EE10FA2370F1
:101700005BDB3D4B04F138001B6898473B4B3C4882
:101710001F68B847237860F3820323703948B847BD
:1017200095ED4E6AD6EDC36A95ED0F7AD6EDC47A83
:101730006978B4EEE66AF1EE10FAB4EEE77AACBF7F
:1017400001220022C300F1EE10FA43EA4203A87816
:10175000ACBF0122002243EA021343EAC0132288ED
:1017600043EA012322F4CD7203F4CD7313432380A3
:10177000D4E90010D4E902320B430243216A606AC3
:10178000194010400143C4E902320CD0022384F80E
:101790003030F8BD1A7D164E012A01BF326A9A61B7
:1017A0000021197596E7D4E9060103400A40134366
:1017B0001CBF012384F83030F8BDD6EDC07AB4EEFA
:1017C000E77AF1EE10FA05D80B4B04F148001B68DC
:1017D00098479BE704F1380008F0CEFA04F148007E
:1017E00008F0CAFA92E700BFC0CEFF1F2CCDFF1F42
:1017F000C0D1FF1F68CEFF1F1C8802082488020882
:10180000A0CEFF1FB0CEFF1F1548164AD0F8B0304B
:10181000154943F4406330B4C0F8B030D2F8B0306A
:1018200043F44063C2F8B030D1F8B0200F4B42F41B
:101830004062C1F8B020D3E90A54D3E9001201EAAA
:10184000050002EA04019A6818602A40C3E90112FF
:10185000DA680020224083F8300030BCDA6070473C
:1018600000010240000202400003024068CEFF1F58
:101870000C4B93F8003173B910B50B4CA369984722
:10188000236A0A48984763699847094A936843F06E
:101890000403936010BD064A936843F00403936009
:1018A000704700BF10D8FF1F8CD1FF1FC0D1FF1F92
:1018B000E0CEFF1F0C4B93F800317BB910B50B4CF9
:1018C000A36998472368984702F0D0FA636998475C
:1018D000074A936843F00203936010BD044A93687B
:1018E00043F002039360704710D8FF1F8CD1FF1F95
:1018F000E0CEFF1F0B4B93F800316BB910B50A4CCB
:10190000A369984701F06EF963699847074A93689D
:1019100043F00103936010BD044A936843F0010350
:101920009360704710D8FF1F8CD1FF1FE0CEFF1FC0
:10193000034B04480449054A5A61C3E9030170474F
:10194000E0CEFF1FF5180208B5180208711802084A
:10195000024B0022C3E90122704700BFE0CEFF1F07
:10196000F8B50024124DA446012729686A68AE68BC
:1019700007FA04F30B4202EA030008D118B11E4231
:101980001CBF9A436A600134032CEED1F8BD0028D5
:10199000F9D11A4326EA0306BCF1000FF3D105EB97
:1019A00084036A60DB68AE6098474FF0010CEAE799
:1019B000E0CEFF1F024B0022C3F80421704700BF96
:1019C00008CAFF1FC0EE207A0023C36080ED000A22
:1019D000FCEEE77AC0ED010AC0ED027A704700BF65
:1019E0000023C360704700BF002303618361C361AC
:1019F000704700BF80ED000AC0ED010A80ED021AB9
:101A0000C0ED031A704700BF90ED007AC0ED060AE2
:101A100070EE417A80ED051AE7EE607A80ED070AF4
:101A2000C0ED047A704700BF002380ED010A036017
:101A3000704700BF114A9FED127AD2EDD37A114B55
:101A4000D2ED160ADFED105A9FED100A92EDD46A1E
:101A5000C7EE276A03F1140093ED037AD2EDD07A32
:101A6000C3ED126A27EE257A67EEA07A80EE060AA9
:101A700083ED107AC3ED117AFFF7A4BFC0D1FF1F29
:101A80004576743F10CFFF1F920A863FDB0F494017
:101A9000094B4FF0FF30002202214FF07E5C1861AD
:101AA00003F11400C3E90011C3F824C09A62DA629A
:101AB0009A63DA63FFF794BF10CFFF1F70B5154D1F
:101AC000154C2868A4F29C4696ED150AA4F10C0169
:101AD0000C302246FFF73CFC286896ED150A22469A
:101AE000A4F10C016830FFF733FC54ED091A54EDF2
:101AF0000A0AD6ED167A286814ED0B0A60EEA70ADA
:101B0000B1EE611AC430FFF775FF2B680022C3F8ED
:101B1000002170BD9CC8FF1F5CD6FF1F38B5174C55
:101B2000174D20682DED048B9FED169AB0EE408A7C
:101B30000C30B0EE490AF0EE608AFFF799FC20689D
:101B4000B0EE490A6830FFF793FC2068C430FFF715
:101B50004BFF2368B0EE680A03F1E40083ED358A99
:101B6000FFF762FF084B22682C68BDEC048B93E8FA
:101B70000300064B146083E8030038BD9CC8FF1FB8
:101B800000CFFF1F000000005CC8FF1F88CDFF1FB3
:101B9000264B9FED271AD3ED165A30B5254C264D0E
:101BA000D4ED2E0AD4ED2F7A94ED2C6AD4ED2D6A63
:101BB00003F2445292ED007A36EE606A27EE257AFF
:101BC00076EEE76AE6EE070A03F59C6383B0E6EE7D
:101BD000877A05F1340093ED000AC4ED2F7A8DED7C
:101BE000011AC4ED2E0A07F017FD9DED011AD4ED80
:101BF0002F0AB0EE410A05F1540007F00DFD95EDF6
:101C0000146AD5ED1C6A95ED1F7AD5ED207A84ED26
:101C1000326A37EE067A77EEA67AC4ED336A84ED3F
:101C2000347AC4ED357A03B030BD00BFC0D1FF1F98
:101C3000000000002CCDFF1F5CCFFF1F334B344A48
:101C400093ED2E7AD3ED2F7AD3ED2C2A93ED2D3A06
:101C5000304B72EEC72A33EE673A62EEA23A23EEB9
:101C6000034A02F24451D3ED2E4A93ED2F6A92EDCE
:101C7000167AD1ED007A93ED305AC3ED2A2A73EE2D
:101C8000A33A34EE044A67EE877A73EEE46A34EEE0
:101C9000467AE7EEA64AA7EE876AD3ED316A83ED6E
:101CA0002B3A74EEC55A36EE667AA7EEA55AE7EEE1
:101CB000876AD3ED325A93ED337AC3ED2C3A75EE41
:101CC000651A36EEC72AE7EEA15AA7EE827AD3ED5F
:101CD000341A93ED352A83ED2D4A75EEE10A37EE7D
:101CE000421AE7EEA01AA7EE812AC3ED2E4A83ED31
:101CF000305AC3ED325AC3ED341A83ED2F6AC3ED67
:101D0000316A83ED337A83ED352A70472CCDFF1F7E
:101D1000C0D1FF1F5CCFFF1FF0B5324C324D266B98
:101D200083B04FF496720021204606F037F8D5EDC7
:101D3000DA1ADFED2E7A266305F5AA6761EEA71A97
:101D4000D7ED000AD5ED167ACDED011A05F24C5605
:101D5000B1EE611A60EEA70A96ED000A8DED001A49
:101D600004F13400FFF746FED5ED167AD7ED000AF0
:101D7000DDED011A9DED001A96ED000A60EEA70A4E
:101D800004F15400FFF736FE05F59D6305F2EC45BE
:101D900093ED007AD5ED007A84ED367A77EEC77A46
:101DA000F5EE006A67EEA67AB0EE006AF0EE475AEA
:101DB000E7EE865AF0EE086AB0EE476AA7EEA66A2A
:101DC000B1EE005AF0EE476AE7EE856A77EE277AC1
:101DD000C4ED385AC4ED377A84ED396AC4ED3A6AF5
:101DE00003B0F0BD5CCFFF1FC0D1FF1F3ACD133F42
:101DF00070B5884B93F80131083B84B0032B00F297
:101E0000BA80DFE803F095723102834B834AD3ED49
:101E1000047AD2ED160A67EEA77A02F2E441F1EEF7
:101E2000E76A02F5A06002F59F620468C3F8F84013
:101E3000012503F1200083F8285191ED007A92EDFD
:101E4000000A67EE267A0021002283F8F420596107
:101E5000C3F80C11C3F810115967C3ED1E7A04B012
:101E6000BDE87040FFF7AEBD6B4B6C49D3ED047A13
:101E7000D1ED160A67EEA77A01F2E442F1EEE76AC5
:101E800001F5A06001F59F610468C3F8F8400125E1
:101E900003F1200083F8285192ED007A91ED000AB9
:101EA00067EE267A00220021C3F8FC2083F8F410A4
:101EB0009A61C3F80C21C3F81021C3ED1D7A9A670B
:101EC000C3F8B820C3F8BC20C3F8C020C3F8C420AE
:101ED000C3F8C820C3F8CC20C3F8D020C3F8D4205E
:101EE00004B0BDE87040FFF76DBD4C494A4BD1EDE1
:101EF000160A01F2F44090ED000A0022012403F1D9
:101F0000200083F82841C3F88420C3F88820C3F850
:101F10008C20C3F89020C3F89420C3F89820C3F80D
:101F20009C20C3F8A02004B0BDE87040FFF74ABD74
:101F3000394C3B4B0025012204F1340084F8282160
:101F4000C3F8B850C3F8BC50FFF74EFD04F154007D
:101F5000FFF74AFD314BE56703F59E62D3ED160AA4
:101F600092ED000AC4F8805004F12000FFF72AFD2A
:101F7000256304B070BD284C284BD4ED437A94ED12
:101F8000497AD4ED446A93F8D42477EE877A002115
:101F900087EEA67A84F82811C4ED437A84ED077A97
:101FA0007AB320696169A2699861D9601A611C4A93
:101FB0001C481D4D83ED057A0021C368C2F8C81086
:101FC000C2F8CC10C2F8D010C2F8D410C2F8201158
:101FD000C2F82411C2F82811984795E80F006E4600
:101FE00086E80F00FFF798FE96E80F00D4ED0C7A14
:101FF0009FED0E7A77EE877A85E80F00C4ED0C7AB4
:10200000B7E720686168A26894ED037A9861D960A7
:102010001A61CCE710D8FF1F5CCFFF1FC0D1FF1F94
:102020002CCDFF1F8CD1FF1F6CCFFF1FCDCC4C3EA2
:10203000684B93F80031083B032B03D8DFE803F02B
:10204000C0AD7403704710B5634C644B94ED1E7AB9
:10205000D4ED356AD4ED365A94ED046ADFED607A3A
:10206000D4ED434A94ED445AC4ED457A27EE077AFD
:1020700035EEA53A87EE264A0022D86884F8282152
:1020800084F8F420574AD3F818C019696060C4F87E
:1020900010215869C4F800C003F2FC42A160D3EDDE
:1020A000026A94ED3E7AC4ED467AC3EE263AA169FF
:1020B000E06004F12000F0EE446AE6EE466A27EEA6
:1020C000077AF4EEE76AF1EE10FAB8BFF0EE676A4D
:1020D000A7EE075AE7EE264AC4ED477A84EE857AE2
:1020E000C4ED487AC4ED497AC4ED437AF1EEC77A7B
:1020F00084ED424AC4ED057AC4ED3B5AC4ED3C3A46
:1021000083ED066AC3ED037AD3ED160A92ED000A59
:102110001961FFF757FCD4ED0C7A9FED337A77EE17
:10212000877AC4ED0C7A10BD2B4B9FED2F4AD3ED6F
:102130001D7A93ED347A93ED0C6A93ED045ADFED3A
:10214000284AD3ED446A67EEA77A36EE046AC7EEF2
:10215000875A83ED0C6AB0EE656AA5EE456AD3ED49
:102160003E7A93ED437AC3ED425AB4EEE46A67EEE9
:10217000A77AF1EE10FAB8BFB0EE646AE7EEA76A8C
:10218000A6EE277AC3ED446A87EE266A83ED437A8A
:10219000F1EEC67AC3ED067A70470F4B134A93ED02
:1021A000296AD2ED006AD3ED0C7A86EE267ADFED4D
:1021B0000E6A83ED047A77EEA67AC3ED0C7A704747
:1021C000054B9FED097AD3ED0C7A77EE877AC3ED54
:1021D0000C7A704710D8FF1F5CCFFF1FC0D1FF1FC4
:1021E000000000000000A040CDCC4C3EA0D6FF1F58
:1021F00038B5CF4B93F80031083B052B3FD8DFE8CB
:1022000013F0AA00B100060010013E003F00C94CC7
:10221000C94D94ED3E7AD5ED167A94ED3F0AA7EEBE
:10222000270A07F029FD04F5807084ED3F0A07F0C6
:1022300065FA94ED416AD4ED1E6A94ED1D7AD4EDF1
:10224000407A27EE067A67EEE67A84ED1F7AC4EDCF
:10225000207AFFF79DFC04F12000FFF7EFFC07F068
:10226000C7F904F1200007F0CBF940B194F8F4303D
:102270000133DBB2102B84F8F43040F2678138BDB3
:10228000AD4BAE4A93ED047AAD49D3ED037A91EDAF
:10229000395AA84CD3ED166A94ED466AD4ED495AE2
:1022A000D2ED084A94ED3B4A77EEC77A92ED267A52
:1022B000A7EE875A03F25451D1ED007A84ED455AC6
:1022C00067EEA67A35EE467AD4ED476AA7EE876ABE
:1022D00094ED487A84ED466A76EE663AF0EEE44A8A
:1022E000E7EEA36AF4EE444A36EEC76AC4ED476AE5
:1022F000A7EE867AF1EE10FA77EE656A84ED487AF9
:10230000E7EEA65AC4ED495AB9D104F1200007F00E
:102310006FF904F1200007F073F90028AFD094F8AA
:10232000F4300133DBB2042B84F8F430A7D8D4EDB9
:10233000437A94ED497A04EB830377EE877AD3F8F6
:10234000D830C4F8EC3004F12000C4ED437ABDE885
:102350003840FFF745BBFFF71BFCBDE83840794824
:1023600007F046B9FFF714FC7349724B734A93EDBB
:10237000225A91ED167AD2ED336AD3ED213AD3ED9C
:10238000245A93ED234A93ED266AD3ED254A01F2B0
:102390004450D0ED007A76EEC56A67EE877A92ED0A
:1023A000327AA7EEA65A03F1200037EE637A83ED66
:1023B000225AE7EE873A35EE657AC3ED213AE7EE29
:1023C000875A33EEC47A75EEC66AA7EE874AA7EE3F
:1023D000A66A34EE643A93ED287AD3ED276A83ED4A
:1023E000234AE7EE834A36EE473AC3ED254AA7EE85
:1023F000837A34EEE63AC3ED245AE7EE836A67EE59
:10240000077AC3ED276AE6EEA67A83ED266AF1EE37
:10241000E76A83ED287AC3ED296ABDE8384007F002
:10242000E7B8444C444D94ED3E7AD5ED167A94EDE0
:102430003F0AA7EE270A07F01FFC04F5807084ED21
:102440003F0A07F05BF994ED416AD4ED1E6A94ED02
:102450001D7AD4ED407A27EE067A67EEE67A84EDAF
:102460001F7AC4ED207AFFF793FB04F12000FFF7F9
:10247000E5FB07F0BDF804F1200007F0C1F80028E3
:102480003FF4FDAE94F8F4300133DBB2102B84F846
:10249000F4303FF6F4AED4ED1E7A94ED357AD4EDF7
:1024A000046ADFED293A94ED436AD4ED445A67EEAD
:1024B000A77A03F59F7387EE874A05EB830305F23E
:1024C000E44504F1200094ED3E7AD3ED027AD5ED97
:1024D000004AC4ED3E7AB0EE445AA6EEE65A27EE24
:1024E000077AB4EEE35AF1EE10FAB8BFB0EE635AD1
:1024F000E7EE075AA7EE056AC4ED445A86EE255A60
:1025000084ED424AB1EEC57A84ED436A67EE877A7C
:1025100084ED057A67EEA77AE6EEA67AB1EEE77A61
:1025200064EE877AC4ED1E7ABDE83840FFF758BAEA
:1025300010D8FF1F5CCFFF1FC0D1FF1F2CCDFF1F86
:1025400088D0FF1F7CCFFF1F00000000D4ED1D7A54
:1025500094ED347AD4ED046A5FED053A94ED436A64
:10256000D4ED445A67EEA77A03F59F7387EE874A46
:1025700005EB830305F2E44504F1200094ED3E7A77
:10258000D3ED027AD5ED004AC4ED3E7AB0EE445A5E
:10259000A6EEE65A27EE077AB4EEE35AF1EE10FA09
:1025A000B8BFB0EE635AE7EE075AA5EE076AC4ED6E
:1025B000445A86EE255A84ED424AB1EEC57A84ED3E
:1025C000436A67EE877A84ED067A67EEA77AE6EECD
:1025D000A67AB1EEE77A64EE877AC4ED1D7ABDE89B
:1025E0003840FFF7FDB900BF38B5114B114C124D03
:1025F000D4F86CC394ED150AC5F830C003F1C802D5
:10260000C3F8E02004F5657105F1400004F5687237
:10261000FEF79EFED4F8903394ED160AC5F800310B
:1026200004F56B7105F1BC00BDE8384000F06EB8F0
:102630002CCDFF1FC0D1FF1F88D0FF1FF8B5304C35
:102640009FED300A2DED028B074620460D461646BB
:1026500097ED008AFFF7E8F99FED2A0A04F10800D8
:10266000FFF7E2F99FED270A04F11000FFF7DCF90C
:1026700094ED0C7A9FED230AC8EE077A04F1180056
:1026800097ED018AC4ED017AFFF7CEF99FED1D0A9F
:1026900004F12000FFF7C8F99FED1A0A04F12800A1
:1026A000FFF7C2F994ED0C7A95ED000AC8EE077AAF
:1026B00004F14000C4ED077AFEF7DAFED6ED000A19
:1026C00095ED000A04F1BC0000F032F80E4B2A68C8
:1026D0001A6332685A6595ED007ABDEC028BB5EE4F
:1026E000C07AF7EE007AFFEE006AF1EE10FAB8BF9A
:1026F000F0EE667A84ED3D7AC4ED3E7AF8BD00BF17
:1027000088D0FF1F000000002CCDFF1FD1ED027A02
:10271000D1F804C0CA680B69C36067EE807AC0F85C
:1027200000C0C0ED017A826080ED040A704700BFEE
:102730000023C361036280ED0B0A80ED0C0AC0ED3B
:102740000D0A70472DE9F04FE04BE14AE1489FED5B
:10275000E26ADFF878E4E14C9FEDE17ADFEDE16ACF
:10276000DFF86CC49FEDE04A9FEDE05ADFEDE04AF0
:102770009FEDE00ADFF85CB4DFF85CA4DFF85C945E
:10278000DFF85C84DC4FDD4E9FEDDD1ADFEDDD1AF6
:102790009FEDDD2ADFEDDD2A9FEDDD3ADFEDDD3A4D
:1027A000DFEDDD5ADFEDDD0A2DED108BDA60DC4A5E
:1027B0005A61DC4ADA61DC4A18615A62DB48DC4A59
:1027C00098611A63DB48DC4A18624FF400355A639B
:1027D0005D60DA48DA4DD8624FF080420021DA635A
:1027E0009D604FF07E52D7481C600525C3F88412C7
:1027F000C3F88C12C3F89412C3F89C12C3F8A41245
:10280000C3F8AC125864C3F828E083ED156A1A6463
:10281000C3F88022C3F88822C3F89022C3F8982214
:10282000C3F8A022C3F8A8221D651425DD65C64D96
:10283000C3F8D052C54DC3F8D8524FF40075A3F871
:10284000DC524FF07C55C3F8E852DFEDC1EA9FED52
:10285000C1EADFEDC1DA9FEDC1DADFEDC1CA9FED5C
:10286000C1CADFEDC1BA9FEDC1BADFEDC1AA9FEDCC
:10287000C1AADFEDC19A9FEDC19ADFEDC18A9FED3C
:10288000C18AC3EDB8EA4FF47A750020F5EE007AFC
:102890000124C3F82053BC4D83EDBBEAC3EDBDDA80
:1028A00083EDBEDAC3EDBFCA83EDC3CAC3EDCDBAB3
:1028B000C3F8B412C3F8BC12C3F8C412C3EDBC7A97
:1028C00083F81403C3F81C0383EDD17AC3F8B02254
:1028D000C3F8B822C3F8C02283EDB26A83EDB36AAD
:1028E000C3F8D422C3EDC26A83F82443C3EDCA6A95
:1028F000C3F82C23C3F840C3C3F848C3C3F830530C
:10290000C3F85413C3F89813C3F89C139F4D83ED79
:10291000D3BA0621C3EDD6AA83EDDAAAC3EDDC9AB9
:1029200083EDDD9AC3EDDE8A83EDE98A83F85C03EB
:10293000C3EDD87A83F8D80383EDFB7AC3F8385314
:10294000C3F8A8B3C3F8ACA3C3F8B893C3F8C08363
:10295000C3EDF26AC3F8CC73C3F8D06383EDF50A14
:1029600083EDD44A83EDF14A83EDD95AC3F8942319
:10297000C3F8A023C3F8E4C3C3F8E8C3C3EDF74A20
:10298000C3EDF84A83EDFC7A83F8F41303F5826112
:1029900081ED001A03F21441C1ED001A03F58661BE
:1029A0009FED7BFA0A6003F2344181ED002A03F5C2
:1029B0008761C1ED002A03F5966181ED003A03F2CB
:1029C000B441C1ED003A9FED737A83F8C40403F576
:1029D000976181ED00FA03F2BC4181ED007A03F5C5
:1029E000996181ED005A9FED6C7A83F8D40403F26B
:1029F000CC41C1ED005A03F59A6181ED007A9FED5B
:102A0000677A6748DFED67FA83F8C04403F58861A9
:102A100081ED007A9FED647A83F83C4403F24441EF
:102A200081ED007A03F24C41C1ED007ADFED5F7A6F
:102A3000C3EDFE0A03F58A61C1ED007A03F2544149
:102A4000DFED5B7AC1F800E003F26441C1ED007A8A
:102A5000DFED587A03F58D61C1ED007ADFED567A2E
:102A600003F26C41C1ED007ADFED547A03F58F611A
:102A7000C1ED007A03F28441DFED517A086003F57D
:102A80009B61C1ED005A03F2DC41C1ED007A03F510
:102A90009C61DFED4C7AC1F800E003F2E441C1ED46
:102AA000007ADFED497A03F59D6103F2EC40C1ED58
:102AB000007AC0ED00FABDEC108B03F59E6103F2C5
:102AC000FC430A601A60BDE8F08F00BFC0D1FF1F51
:102AD0006D45DF3706F09A3700409C46213F52F49F
:102AE000DB0FC9409A99993E8B9E6943CDCCCC3D72
:102AF0007C59C4461023843C0A78C238212F87367B
:102B0000CDCCCC3E1D4393453433A3405D8F8240F2
:102B1000ED2B8C43ED2B0C43CDCC4C3DDD7EBC42EC
:102B200017F11D3B287E1C4000000842C2340C3DBA
:102B30001703124600001842265A2046D7B3DD413B
:102B40000000E0413333733F000020410000A0400B
:102B50009C5349366F12833A7442B744000087444D
:102B60009A99993F0000B442F6DE2644CDCC4C3F02
:102B7000BD37863500004042CDCC4C3E0AD7A33C41
:102B80006F12033B5B120B3C000060400000E03F13
:102B90000AD7A33D55A4423BD353FB42907BEC3E66
:102BA0000000C040A204DB45DB0F4941A67EA63FE2
:102BB0001D431346959E6B44D2537B433489844511
:102BC000CDCCCC3C9A9959418B9E694400008841F8
:102BD00063141D44D1A66237959EEB433987704636
:102BE0008B9EE94370B5534E534AD6ED177A96ED56
:102BF000157AD6ED034AD6ED045AF266F8EE677AF6
:102C0000C4EEA56A0023336706F17405012487EE3C
:102C1000275AD6ED147ADFED495A86ED185AF8EEA8
:102C2000677AB7EE006A67EE877AC6EE073A86EEF5
:102C3000274AC6EE054A96EDB87AC6ED127A37EE07
:102C4000077AF4EEE56A2DED028B27EE277A9FEDE9
:102C50003C8A86EDB97AF1EE10FAB8BFF0EE656AFB
:102C6000C6ED0E6AC6ED163A86ED134A86ED1A8A4F
:102C7000C6ED194A07EE904AB8EEE70A013420EE95
:102C8000080A04F05DF8402CA5EC010AF2D1DFED52
:102C90002D8A2D4A2D4DC6ED5C8A0023C6F874217D
:102CA000C6ED7E8AC6F8FC21C6F87831C6F8003237
:102CB000012407EE904AB8EEE78A013428EE288A0C
:102CC000B0EE480A03F05AFFF0EE407AB0EE480A40
:102CD000B0EE678A03F026FFA5EC018A202C85ED73
:102CE000210AE6D196EDDA7ADFED196A9FED196ACD
:102CF000D6ED0D7A96F8F43367EE266A77EEA77A6A
:102D000027EE067AC6EDC06A86EDC17AC6EDC47AB2
:102D10000B2B00F2E281DFE813F01F00C401C401B5
:102D2000C401C401C4011F001F001F001F001F00B9
:102D3000D80100BFC0D1FF1F9D6D2042AE47813F2B
:102D4000DE40CC3C0821043D0000F8413CD3FF1F8D
:102D50003333333F6666A63FE14A96EDCD7AF2EC17
:102D6000017A96ED026AD2ED006A77EEE67A27EEF6
:102D7000067A77EEA77A0022C7EE876A0A2B86F8D2
:102D80003C23C6EDC66A40F09C81012386F83C33A3
:102D900096EDDE7AD6EDDD5AD6EDDC7AD14CD24D09
:102DA00037EE875A77EEA56A27EE876A67EEA57A2F
:102DB000A5EE856A67EE877A76EE876AB7EE008AB7
:102DC00037EEE67A78EE460A27EE077A36EEE70A1D
:102DD000A0EEA07AC6EDDF6AF1EEC76A86EDE06A82
:102DE000C6EDDB6AC6EDE17A06F03AFDBF48F0EECB
:102DF000407AB1EE400AC6EDE27A06F07FFCD6EDED
:102E0000046A96ED037A96ED066AD6ED024A96EDCF
:102E1000EB3A9FEDB71A96F83C33D6ED163AD6F852
:102E20008823C6F8BC2377EE267AF6EE005A67EEC2
:102E3000A57A63EE031A87EE865A002BAD4BAE4897
:102E400019464FF00002D6ED057A27EEA42A83EE4C
:102E5000270A24EE824A9FEDA93A86EDEC0AC1EEDC
:102E6000044A83EE021A96EDF53A96EDDA4A9FEDA2
:102E7000A40A21EE031A93ED053A83ED031A23EE1B
:102E8000072A85EE237AF2EE042A66EE848A25EE7E
:102E9000221A27EE805A9FED9B0A83ED062AC1EE87
:102EA000A70AC1EE237ADFED981A85EE281A24EEE0
:102EB000005A23EE064AB5EEC07A18BFF0EE621A49
:102EC00083ED084AF1EE10FA83ED094ABEEE004A9E
:102ED000B4BFB0EE442AB0EE652A37EE027A83ED35
:102EE0000A5ABDEEC77A83ED0B5AB8EEC77A96ED53
:102EF000FE5A27EE237AF5EEC07A83ED167A96ED28
:102F0000F47A24EE877AF1EE10FA83ED027A25EE58
:102F1000077AA8BFB0EE654A27EE217A77EE847A69
:102F2000A1EC017A93ED114A96EDF37AFDEEE77A82
:102F300024EE877A23EE844AF8EEE77A60EEA50A5B
:102F400023EE260A21EE044A67EEA37A27EE055AFD
:102F500081ED007AC6EDED0A83ED124A86EDFF5A47
:102F600083ED070AC3ED177AD6ED0E4A93ED214A99
:102F700093ED1B7AD3ED1A7A9FED641ADFED643A74
:102F80006449DA6734EEC85A64EE255AF5EE000A51
:102F900025EE255AB0EE002AC5EE245AC3F8942037
:102FA000C3F898205C4AC3F80401C3F808115B48D1
:102FB0005B49C3F810215B4AC3F80C41C3F8140104
:102FC000594C5A48C3F8181127EEA75A67EE074A1A
:102FD000C8EE051A5649C3F82021564AC3F81C41C9
:102FE000C3F82401C3F82811C3F8005152495348CB
:102FF000534C93ED195A83ED248A64EEA04A66EE91
:10300000846AC2EE270A87EE832AD3ED157A83ED10
:10301000278A81EE073A66EE277A25EE266A87EE42
:10302000255A84EEA57A67EEA37A83ED1D7AC3ED67
:10303000187AC3ED226A83ED236AC3ED205AC3EDEB
:10304000280AC3ED291A83ED1C5A83ED2A2A83ED41
:103050002B3AC3F82C2193ED3F7AC3F83411C2EE1A
:10306000877ABDEC028B3749C3F83001C3F83C11B5
:1030700035483649364AC3F83841C3F84001354C23
:103080003548C3F844113549C3F84841C3F84C01E9
:10309000C3F85011C3F8F420C3F8F820C3ED557AF3
:1030A00070BD2F4AD6EDCE6AB2EC017AD2ED007A2D
:1030B00037EE677AC7EE267A002286F83C23C6ED03
:1030C000C67A052B7FF464AE5FE6264AF2EC017AFD
:1030D00092ED007A77EEC77AEEE7DFED237AEBE741
:1030E00070D6FF1F19AF9B45704990454CD5FF1F07
:1030F000ABAA2A40C0D5FF1F74FD9345ABAAAA3FD7
:10310000D8B3DD3F3ACD133F0000C8420000204253
:10311000A9DE1740CCC99745FFAD9F4525C7A345FC
:1031200039FBA745F1B6B045EB4AAC450440B5457F
:10313000E4E6B94554ACBE450F96C8451E91C3455B
:10314000FABBCD45B903D345296ED845DD7EBC43D6
:10315000AF4C593EDD7E3C43CDCCCC3DE4CB16425A
:10316000F4D5FF1F98D6FF1F0000000030B50F4AAE
:103170000F4C104D83B04FF40033CDE9002302AB68
:1031800013E903002246EB699847FFF7DBFAFFF7E4
:1031900029FD2B6A20469847074BE08898804FF41A
:1031A000A8710722D9801A8103B030BD213F52F4A3
:1031B000C0D1FF1F8CD1FF1FB4D1FF1F114B9FED5A
:1031C000127AD3ED046AD3ED037A77EEE67AF0EE65
:1031D000E76AF4EEC76A93ED057A0C4BF1EE10FA4C
:1031E00056BF87EE276A0022012283F8A020C7EE8F
:1031F000876A48BF9FED066AC3ED2A6A83ED296A94
:10320000704700BFC0D1FF1F5F70893008CAFF1F21
:1032100000000000114BD0ED016AD3ED2A7AF7EEE1
:10322000005AB0EE657AA7EEE67AD0ED006A27EE96
:10323000267AF0EE656A67EE877AE7EEA76A66EEB1
:10324000A66A85EEA66AF0EE466AE7EEA76AF1EE98
:10325000E67A67EE877AC1ED007A704708CAFF1FE9
:103260000023036043607047C1EE007A80EE807AED
:1032700067EEA17A20EE210A80ED037A80ED020A42
:10328000C0ED047A704700BF10B4234C234BD4ED3B
:10329000BC6AD4ED157AD4ED190AD4EDB34AD4ED55
:1032A000B45A94EDB56A94EDCC0A67EEA67AB1EE05
:1032B000047A87EE275A93E80700194BD4ED167A63
:1032C00094EDB27AD4EDB66A83ED1F5A27EE877A71
:1032D00003F1700467EEA47A65EEA05A26EE206A28
:1032E00066EEA06A84E807005DF8044B83ED107A6F
:1032F00003F1E00083ED147A83ED187AC3ED207AB0
:10330000C3ED247AC3ED287AC3ED2C5A83ED306ADD
:10331000C3ED346AFEF756BBC0D1FF1F04CFFF1FB9
:103320001CD7FF1F084B0022DA64DA65DA66C3F89F
:103330008C20C3F89C20C3F8AC20C3F8BC20C3F891
:10334000CC20C3F8DC2070471CD7FF1F70B5614C40
:10335000614DD4ED2D3A95EDAC4AD4ED314AD5ED21
:10336000AE6A94ED357AD5EDB07A95EDAD5AD5EDDE
:10337000AF5A95EDB16AD4ED2C2A95F82433574E07
:10338000A3EE845A012BE4EEA65AA7EE276AD4EDE9
:103390002F6A94ED337AD4ED377AD4ED303AD4ED08
:1033A000344A84ED2E5A35EE662A35EEC73A36EEAB
:1033B000674AE2EE226AA3EE237AE4EE247AC4EDB1
:1033C000325A84ED366AC4ED2F6A84ED337AC4ED47
:1033D000377AC6ED4D6A86ED4E7AC6ED027A56D042
:1033E000022B1AD104F1E00006F002F904F1E0002A
:1033F00006F006F9002856D1394B95EDCB6A93EDCE
:10340000007AD5EDCA6AF7EE007A77EEC77A67EEF2
:10341000867AE6EE877AC6ED047A94F8F03095F86D
:10342000F423C6ED057A13F0010FB7EE007AFFEE34
:10343000006A08BFB0EE667AC3F34003052A86ED42
:10344000017AB3700FD90B2A0ED1264BD3ED3C6A0B
:10345000D3ED3B7A66EE876A67EE877AC6ED076A38
:10346000C6ED067A70BDAAB995EDCD6AD5ED026AB2
:1034700067EE867AB6EE006A67EE877A26EE867A7F
:10348000C6ED077A67EE277AC6ED067A70BDD6EDEF
:10349000037AC2E7D5EDCE6A67EEA67A67EE877A41
:1034A000C6ED197A70BD04F1E000FEF799FA0C4BF5
:1034B00093ED007AF6EE007AB4EEE77AF1EE10FAC8
:1034C0004BBF4FF07E520022D5EDCA7AD5EDCB7AB4
:1034D0001A60A0E71CD7FF1FC0D1FF1F2CCDFF1F14
:1034E00018D7FF1F5CCFFF1FD0ED027A90ED037A53
:1034F000F4EEC77AF1EE10FA48BFF0EE477A90ED9D
:10350000047AF4EEC77A4CBF01230023F1EE10FADF
:1035100048BFF0EE477A90ED057AF4EEC77A48BFDF
:103520000223F1EE10FA48BFF0EE477A90ED067AEA
:10353000F4EEC77A48BF0323F1EE10FA48BFF0EE6D
:10354000477A90ED077AB4EE677A48BF0423F1EE2C
:1035500010FAC8BF052310B5C356384C0B7084FB56
:1035600003C2A2EBE37202EB4202A3EB420204337A
:1035700084FB034CACEBE37C0CEB4C0CA3EB4C035B
:10358000013290F901C052B2013362455BB239D0C9
:1035900090F902E0A3EB0C0CBCFA8CFC96454FEAC8
:1035A0005C1C4FF0000435D09E4508BF4FF0020C64
:1035B00090F903E0724533D0734508BF4FF0030C18
:1035C00090F904E0724531D0734508BF4FF0040C08
:1035D00090F905E072452FD0734508BF4FF0050CF8
:1035E00000EB840393ED027A00EB8C03D3ED027AB7
:1035F000B4EEE77AF1EE10FAACBF035710F90C30D5
:103600004B7010BD90F902E096454FF0000C4FF062
:103610000104C9D190F903E072454FF00204CBD107
:1036200090F904E072454FF00304CDD190F905E024
:1036300072454FF00404CFD10524D1E7ABAAAA2AE2
:1036400038B51F4D1F4CD5ED160A05F58B6393ED6C
:10365000000A2046FEF7B6F905F25C4393ED000A36
:10366000D5ED160A04F11000FEF7ACF905F58C63F0
:1036700093ED006AD5EDDA6AC6EE267A002384F867
:103680002030B7EE007AF4EEC77AF1EE10FA9FED33
:103690000E6A88BFF0EE477AF4EEC67AF1EE10FAC1
:1036A000B8BFF0EE467A37EE677AF6EE006A27EE9C
:1036B000267A77EE877A84ED1C7AC4ED1B7A38BDC2
:1036C000C0D1FF1F20CBFF1F00000000024B0022D3
:1036D00083F83821704700BF08CAFF1F10B5284C77
:1036E00094F83831032B00D010BD04F28D1104F58D
:1036F0009E70FFF7F9FE04F28F1104F5AE70FFF72C
:10370000F3FE94F98D2194F98F319A4294F9902126
:1037100026D00521981A032828DD013B05325BB22B
:1037200052B207EE902A07EE103AB8EEE70ADFED44
:10373000157A84F83811F8EEC76A20EE270A9FED53
:10374000127ADFED127A84F89131A6EE870A84F8B6
:10375000922130EE270A06F08FFA84ED6A0A10BD36
:1037600094F98E119142D4D10421D3E7D01A0328C1
:10377000CCBF053303F1FF33013A5BB252B2D0E75D
:1037800008CAFF1F920A863EDB0F493FDB0FC93F85
:10379000084B0948D3ED081AD3ED167A93EDFF0ACA
:1037A00003F58062D2ED000AB1EE611A60EEA70A5D
:1037B000FEF720B9C0D1FF1F88CAFF1F0148FEF7DE
:1037C00013B900BF88CAFF1F154A1649D2ED107AF7
:1037D00091ED027A91ED001A1349D2ED0E0AD1ED66
:1037E000006A124B124821EE271AD2ED087A83EDB7
:1037F0001C1AF5EEC07A77EEE00A67EEA67AF1EED3
:1038000010FA31EE271AB8BFB1EE477A31EE071A37
:1038100083ED1D7AC3ED1E7A83ED1F1AFEF7F4B80F
:103820002CCDFF1FC4D5FF1FC8D5FF1F08CAFF1F1F
:1038300088CAFF1F08B5044B1B699847034A044B0D
:1038400007CA83E8070008BD8CD1FF1F04CFFF1F04
:103850004CCEFF1F054B064A93ED017AD2ED007A5C
:1038600067EE877AC3ED1C7A704700BF2CCDFF1F2F
:10387000F4D5FF1F08B5FFF769FDFDF709FFBDE8A7
:103880000840FEF76DB800BF08B5FEF7B1FCBDE813
:10389000084007F09BBD00BFFEF7CABB10B5074C40
:1038A00063689847FEF7A4FA054BA26893F80111E4
:1038B00083F80011BDE81040104700BF8CD1FF1FF6
:1038C00010D8FF1F70B50D4C0D4D00F0E1FE002328
:1038D0002367FDF76BFE6B68984704F1D80393E804
:1038E000030004F1C803C4F8E03083E803002B6947
:1038F0009847AB68BDE87040184700BF2CCDFF1F4C
:103900008CD1FF1F08B5044B93ED000AFDF70CFEA8
:10391000BDE80840FDF74ABE68D6FF1F10B5134B3F
:10392000134C144AD4EDF07A92ED017A93E8030037
:10393000114B84B0D3F800C0CDF804C002AB67EEE1
:10394000877A83E8030001AA18466946CDED007A1C
:10395000FEF774FE00F09CFED4ED160A94EDF20A18
:103960000648FEF72FF804B010BD00BFF8CEFF1FC9
:10397000C0D1FF1F2CCDFF1F00CFFF1F60D9FF1F3D
:1039800000B585B0FDF712FE114B124A93ED047A93
:1039900093ED066AD3ED056A1068009003F58A611D
:1039A000D1ED007A0C4B019327EE277A4FF0000CF3
:1039B000C7EE067A01AA694602A8CDF80CC077EED8
:1039C000A67ACDED027AFEF739FE05B05DF804FB6C
:1039D000C0D1FF1F00CFFF1FDB0FC93F70B51A4BCF
:1039E0001A4C1B4DD3ED160A93EDD90A194E84B02B
:1039F00004F5B070FDF7E6FF6B689847EB689847F1
:103A00001549164A164B01F1D80001F5907CC1F812
:103A1000E00007CA8CE8070096E803001B680093E3
:103A2000019302AB83E8030001AA18466946FEF73A
:103A300005FEFDF759FD94F80121AB6884F80021DB
:103A4000984704B070BD00BFC0D1FF1F10D8FF1F42
:103A50008CD1FF1FF8CEFF1F2CCDFF1F04CFFF1FFF
:103A600000CFFF1F70B5214D214B224E93F830300F
:103A700095E8070084B001AC022B84E807001BD056
:103A8000012B16D01C4D73680022A5F874219847AD
:103A9000FDF72AFD94E80700184BB66883E8070095
:103AA00095F8013185F80031334604B0BDE8704027
:103AB0001847F3689847E5E733699847104B93F840
:103AC00014336BB1012B05D00E4B93E8070084E84B
:103AD0000700D7E70C4B93E8070084E80700D1E71D
:103AE00095E8070084E80700CCE700BF04CFFF1F7C
:103AF00068CEFF1F8CD1FF1F10D8FF1F4CCEFF1FB9
:103B0000C0D1FF1F64C8FF1F70C8FF1F70B5154CE0
:103B1000154E164DD6ED160A96EDD80A04F58E70A0
:103B2000FDF750FF6B689847FDF7DEFC104B114A1C
:103B300096F8F46300211967196207CA03F59073B8
:103B40000B2E83E8070008BF0B4B94F8012108BF38
:103B5000C4F8783184F800212B699847AB68BDE838
:103B60007040184710D8FF1FC0D1FF1F8CD1FF1F16
:103B70002CCDFF1F04CFFF1F1196020870B5194E00
:103B8000194C8AB0FFF71AFE7368984704F1B8031E
:103B900093E8030094ED150AB3688DED010A08ADB2
:103BA00085E8030098479DED010A04A805F0A6FDED
:103BB00006AA04A9284605F027FE03A906A8FFF7D0
:103BC00029FB0A4BDDED037A93ED000A20EE270A6C
:103BD00084ED1C0AFFF7F8FDFDF7ECFEFDF7E6FCAF
:103BE0000AB070BD8CD1FF1F2CCDFF1FD0D5FF1F99
:103BF0000F4A104BD2ED6A0A93ED000A10B5FDF79B
:103C00008DFF0D4B0D4CD3ED160A03F2AC4292ED35
:103C1000000A04F59E70FDF7D5FE094A094B92E8AB
:103C20000300012283E8030084F84C2110BD00BF8B
:103C300008CAFF1F00CFFF1FC0D1FF1F10D8FF1FF2
:103C4000F8CEFF1FF4CDFF1FFFF748BD00B589B0C8
:103C5000FDF7ACFC0E4A0F4B92ED6A0A1B688DED26
:103C6000010A02A8009305F049FD0B4B00205B6997
:103C7000049006AA02A904A8059305F0DBFD01AA99
:103C8000694606A8FEF7DAFC09B05DF804FB00BF40
:103C900008CAFF1F00CFFF1FC0D1FF1FFFF716BDCF
:103CA00008B500F0FDFC0B4B0B4AD3ED160A03F5EB
:103CB0008A6103F24C40D1F800C090ED000A074839
:103CC000C2F89CC00021BDE80840C2F8A010FDF772
:103CD00079BE00BFC0D1FF1F2CCDFF1F3CD9FF1FF5
:103CE000254B264993ED057AD1EDC67A244AB4EEE8
:103CF000E77AF1EE10FA10B521D5138903F4C073F9
:103D0000B3FA83F35B0992F90000002803DB92F910
:103D10000800002826DB5078C00712D50022194C75
:103D200094F87501A8B92BB1D4F87031D1F81C13EF
:103D30008B4219D312B1012384F8753110BD0023D1
:103D4000E1E7104C527A94F8750102F00102002864
:103D5000E9D0002384F87531FDF756FD012384F87E
:103D6000743110BD0122DAE70122134484F8752171
:103D7000C4F8703110BD00BF2CCDFF1FC0D1FF1F94
:103D800068CEFF1F10D8FF1F08B50E4B93F8003107
:103D90005A1E032A15D8042B0FD0012B0DD00A4B25
:103DA00093EDF00AFDF776FBFFF708FD074B0022C5
:103DB0001A67BDE80840FDF7FDBD054B93ED000A0D
:103DC000F0E708BD10D8FF1FC0D1FF1F2CCDFF1F8B
:103DD00070D6FF1F70B5104D104C05F5966393ED2E
:103DE000000AFDF757FB0E4B0022C3F8A02000F09D
:103DF00057FC6368984795F8F4330B2B094B08BFC1
:103E0000094A93F8011183F8001108BFC3F878211B
:103E1000A268BDE870401047C0D1FF1F8CD1FF1FC2
:103E20002CCDFF1F10D8FF1FF12102080C4B93F877
:103E300004219AB10B4A0C49F2EC017A91ED067A11
:103E4000D2ED006A77EEE67AB0EEC77AB4EEE77AA2
:103E5000F1EE10FA44BF002283F80421704700BF3E
:103E600010D8FF1F70D6FF1F2CCDFF1F10B5FFF716
:103E70000BFAFDF7A9FBFEF7B7FBFDF715FBFFF704
:103E800087FC00F013FCFFF799F9FFF7D9FBFDF76A
:103E900015FEFDF741FFFDF7CDFDB7EE000AFDF77A
:103EA00043FBFFF73FFAFDF7D9FB104A104892F8A1
:103EB000F4331049104C0460082B1048086008D0F7
:103EC000032B06D092F83C33012B0AD00C4800217A
:103ED00001E00C4801210C4A0C4B106083F84C1196
:103EE00010BDFDF7D5FD0A480021F4E7C0D1FF1F42
:103EF000B0C8FF1FB4C8FF1FC1A902087538020867
:103F00005DA0020851A90208B8C8FF1F10D8FF1F02
:103F1000919D020838B5164D164CEB68984794F8F9
:103F20000831B3B9AB69984713491448144A154B83
:103F30000B600360144B1360FFF718F92B68984768
:103F4000FFF794FF11496A69012384F808310B7067
:103F500090470F4B0F48D3ED160A93EDBC0AFDF7BF
:103F600031FD002384F8043184F8093138BD00BFE5
:103F70008CD1FF1F10D8FF1FB4C8FF1FB0C8FF1F90
:103F8000B8C8FF1F119602085DA002082CCDFF1FC4
:103F9000C0D1FF1F1CD9FF1F2DE9F84F364C374DFC
:103FA000374BC4E95E3395E80F0084E80F0005F154
:103FB00010030FCB05F1B00C04F1100686E80F00DA
:103FC000ACF190030FCBB03686E80F00ACF1800364
:103FD0000FCB103686E80F00ACF170030FCB103614
:103FE00086E80F00ACF160030FCBC03E86E80F00FF
:103FF000ACF150030FCB103686E80F00ACF1400354
:104000000FCB103686E80F00ACF130030FCB103623
:1040100086E80F00ACF120030FCB05F1A00E04F1F0
:10402000600B8BE80F009EE80F0004F1800A04F19A
:10403000900904F1A00804F1B00720368AE80F00C7
:1040400089E80F0088E80F0086E80F0087E80F0076
:104050009CE80F008036002586E80F0084F80051A8
:1040600084F80851FFF756FFC4F87051FDF760FC63
:10407000BDE8F84FFDF76CBC10D8FF1F2888020878
:1040800011960208F8B5AA4BAA4C1B68AA4D2DED53
:104090000A8B984794F8003104EB0313DB689847C8
:1040A000D4F87C319847A54B95EDF17AD3ED087A99
:1040B000D5EDF0AA94F80061A14A93ED066AD3ED1C
:1040C000195A92F8302093ED1C5A93ED05CA94F8D2
:1040D000047105F5966191ED00BA05F2B4417AEEEE
:1040E000C76AB0EEE77AD1ED007A05F2344191ED7E
:1040F00000AA05F587613BEE678AD1ED007A05F5E8
:104100009B61D1ED00BA05F2DC413AEE679AD1ED40
:10411000007A711E7BEEE77AF0EEC68AF0EEE59A41
:104120000E2900F29C82DFE811F0C100110142016A
:1041300052017D01A301AA010F000F000F000F0023
:104140001F005E009E00A8001D78002D40F0A48195
:10415000F4EECC7AF1EE10FA40F3A381012384F857
:10416000013133461E462EE01B7853B3002A40F03F
:104170008481B4EEC87AF1EE10FA07D595F8F433DD
:10418000002B00F08481092B00F08181F4EECC7AC1
:10419000F1EE10FA04DD95F8F4330B2B00F0778183
:1041A000B4EEEA7AF1EE10FA40F30E8195F8F433AA
:1041B00003F0FD03092B40F00781012384F804314B
:1041C000052384F8013104EB06167368984794F8C8
:1041D00001311B01E358984794F8013184F800310C
:1041E000BDEC0A8BF8BD1B78002BEAD0002A40F00A
:1041F0004481B4EEE67AF1EE10FA40F17A8195F856
:10420000F4339A1F012A40F24281092B00F03F81CA
:1042100094F84C21002A40F07181082B00F037817E
:10422000B4EEC87AF1EE10FA04D595F8F4330A2BFF
:1042300000F02D81F4EECC7AF1EE10FA04DD95F861
:10424000F4330B2B00F023813E4805F0D9F9002808
:1042500000F0E58095F8F4330B2B40F0E08094F803
:1042600000310726FCE01B78002BAAD094F87431AB
:10427000002B00F0A9800023A3E71B78002BA0D01F
:10428000002A40F0FA80B0EEC55AB4EEC95AF1EEF9
:1042900010FA40F1998095F8F433012B91D0032B5B
:1042A00000F26D81012B40F28F80F0E01B78002B33
:1042B00087D0002A40F0E180234805F0A1F90028CA
:1042C00000F0AD80F4EECCBAF1EE10FA04D595F81A
:1042D000F4330B2B00F09081F4EECB8AF1EE10FA60
:1042E00087F0010700F36D81F4EECA9AF1EE10FA3F
:1042F00040F3958095F8F433012B00F0818195F817
:10430000F4339A1E012A40F26F81052B00F0E880F9
:10431000F4EECB8AF1EE10FA40F38180002F7ED0CC
:1043200095F8F4330A2B7AD194F800310D2697E0F2
:10433000B4C8FF1F10D8FF1FC0D1FF1F2CCDFF1F17
:1043400068CEFF1F7CCFFF1F2CD9FF1F1B78002BCF
:104350003FF437AF002A40F09080B04805F050F9A4
:1043600000285CD0F4EEC88AF1EE10FA04D595F876
:10437000F433062B00F00B81F4EEC99AF1EE10FA3B
:1043800040F1148195F8F433012B00F00081F4EE34
:10439000EA8AF1EE10FA42DD95F8F433062B3ED1AD
:1043A000012294F8003184F804210D2658E01B788E
:1043B000002B3FF406AF002A5FD1994B93F83831B8
:1043C000043B012B40F2A68084F8016108E71B78CA
:1043D000002B3FF4F6AE002A4FD1924805F010F9B9
:1043E000E8B1F4EEC88AF1EE10FA04D595F8F4338A
:1043F000082B00F0CC80F4EEC99AF1EE10FA40F1EF
:10440000CA8095F8F433032B00F0C180F4EECB8A18
:10441000F1EE10FA03DD95F8F433082BC0D094F8D0
:1044200000311DE01B78002B3FF4CBAE2ABBB4EE6D
:10443000E67AF1EE10FA03D595F8F433092B26D07D
:10444000F4EECC7AF1EE10FA03DD95F8F4330B2B91
:104450001DD0754805F0D4F894F8003100B10D2650
:104460009E4284F801617FF47DAEBDEC0A8BF8BDFD
:104470001B78002B3FF4A5AE22B30E23A1E61B78D8
:104480003BB9F4EECC7AF1EE10FA7FF768AE012377
:1044900097E672B10E23F4E7002A0CBF35460E25CD
:1044A00056E6624805F0ACF8F0B994F800312E46B3
:1044B000D6E7F4EECC7AF1EE10FAE8DC072384F8C4
:1044C00001318DE65A4805F09BF80028A7D0F4EE9C
:1044D000CA9AF1EE10FAA2DD95F8F433042B9ED1BE
:1044E00094F800310F26BBE7013694F80031F6B29C
:1044F000B6E794F84C31002B3FF492AEB4EEC87A94
:10450000F1EE10FA7FF596AE95F8F433082B7FF4B0
:104510008EAEBCE7F4EEC88AF1EE10FA04D595F839
:10452000F433073B012BB2D9F4EEC99AF1EE10FA3D
:1045300004D595F8F433023B012BA8D9F4EECA9ABE
:10454000F1EE10FA05DD95F8F433022B63D0032B5E
:1045500070D0F4EEEA8AF1EE10FA03DD95F8F43348
:10456000072B6AD0F4EECB8AF1EE10FA7FF72CAF6E
:1045700095F8F433082B7FF427AF042321E6052BAD
:1045800085D0042B08BF06233FF41BAE1CE794F82C
:104590000031012664E7F4EECA9AF1EE10FA7FF7D3
:1045A00035AF95F8F433032B9AD02FE7F4EECA9A7F
:1045B000F1EE10FA7FF7EBAE95F8F433012B8FD0C4
:1045C000E5E695F8F4339BB1092B3BD0E7B1062B18
:1045D00016D0F4EECA9AF1EE10FA3CDD012B0FD0A2
:1045E000073B012B3FF68BAE94F80031032637E7EB
:1045F00094F800310C2633E794F8003108262FE7B1
:1046000094F8003102262BE7F4EECA9AF1EE10FA84
:104610007FF705AF70E60F23D3E500BF3CD9FF1F3E
:1046200008CAFF1F4CD9FF1F60D9FF1F7CCFFF1F97
:1046300070D9FF1F1E460423C3E5012384F804310B
:104640000D23BEE5002FD3D1F4EECA9AF1EE10FA95
:104650007FF7E5AE53E6073B012BC5D960E60AB10B
:104660000E237CE594F80821002A3FF4ADAE94F8BF
:104670000921002A3FF4A8AE1B78002B3FF4A4AE1A
:1046800095F8F433042B0CBF0623012367E500BF24
:10469000024B0022C3F89020704700BF2CCDFF1FB3
:1046A000014B00225A6470472CCDFF1F10B4154AED
:1046B000154B92F8C044154892F8DC221449012C9D
:1046C00008BF0346012A0B6013D01249124A134B4C
:1046D0004FF07E50C1F82C01C1F830011046104C4B
:1046E0001049226000225DF8044B0860C3F81423CF
:1046F00070470A4B0C4A0D480021C3F8E812C3F872
:104700000013ECE7C0D1FF1F95B2020801AE02080A
:10471000C4C8FF1F2CCDFF1F1196020808CAFF1F37
:10472000C0C8FF1FBCC8FF1F19B10208C1B00208F2
:1047300010B4454B02791B68062A0ED8DFE802F058
:10474000222A340410101A008268002A52D1026909
:10475000B2F90020063320F823205DF8044B70479F
:10476000826852BB02695DF8044B1268063340F858
:104770002320704702695DF8044B00EB8300136847
:1047800083617047826842BB02690633127800F881
:104790002320E2E78268002A3AD1026992F90020D8
:1047A000063300F82320D8E78268002A3ED1026948
:1047B0000633128820F82320CFE70169027B0968BD
:1047C000012404FA02F206330A4014BF40F82340E1
:1047D00040F823205DF8044B70470169027B09789B
:1047E000012404FA02F20A4003F10603D9D000F8CA
:1047F0002340B2E70169027B0C88012101FA02F231
:10480000224012B20633002AA5D020F82310A4E7D4
:104810000169027B0C78012101FA02F2224054B2B4
:104820000633002AE3D000F8231096E70169027BE3
:104830000988012404FA02F20A4003F106038AD02F
:1048400020F8234089E700BF7C1800208E4AF8B585
:1048500013880BB9012313808C4C8D4922780B806F
:10486000032A00F2DF82DFE802F03B600A02894A95
:104870001368002B00F08780013B1360F8BD864869
:104880000368012B00F0B28084480368012B00F01C
:10489000CB8083480368012B00F0C3808148036804
:1048A000012B00F0BB80804A804913680B60013304
:1048B000B3F57A7F28BF002313607D4A1368002B6D
:1048C000DAD17C4A1178012900F0C8807A4A714B0C
:1048D00012681A600323794A237001211160F8BD20
:1048E00076497748704D774A00230B606F49036023
:1048F0000B60684968480B606D492B600B60724B18
:1049000012681A600368012B6DD064480368012B9C
:104910007BD063480368012B7DD062480368012B7C
:1049200076D001232B602370F8BD5B480568012D0C
:1049300068D05A480368012B61D059480368012B9D
:104940005AD058480368012B53D05F490A68002A9F
:104950006DD0554D013A0A602B68594A53490B6096
:104960000133B3F57A7F28BF00232B601368012B36
:1049700084D1544B4E491B680222C3F5797313440A
:104980000B602270F8BD4D4B1B68002B7FF476AF97
:104990004B4941484B4A0B60036811684A4A01255C
:1049A000AB422570116001D1FFF7C2FE3B4803689E
:1049B000012B01D1FFF7BCFE39480368012B01D15F
:1049C000FFF7B6FE37480368012B01D1FFF7B0FEB1
:1049D000354A364913680B600133B3F57A7F28BF37
:1049E00000231360F8BDFFF7A3FE8EE7FFF7A0FEDC
:1049F0004AE7FFF79DFEA8E7FFF79AFEA1E7FFF75A
:104A000097FE9AE7FFF794FE93E7FFF791FE80E7A2
:104A1000FFF78EFE85E7FFF78BFE7EE7FFF788FE48
:104A200041E7FFF785FE39E7FFF782FE31E7274AC6
:104A30001378013BDBB2032B0BD90123164813700B
:104A40001F4A0023012D13600AD0174D17492B6808
:104A500085E71F4A52F823000568F1E713703AE72B
:104A60001C4B12491F68104D0E682B68012F0779E7
:104A700000F0C780062F3FF672AFDFE807F0B09D69
:104A80008B78634E2D0000BF8C18002094180020F6
:104A90008E180020A418002090D9FF1F48E9FF1F9E
:104AA00000F9FF1FB80800207C18002080180020A3
:104AB0008418002078180020A0180020701800200A
:104AC0009C180020981800208818002095180020B5
:104AD000E8880208AC18002000EB8606D6ED066ACE
:104AE00000EB830696ED067AF4EEC76AF1EE10FA53
:104AF0007FF735AFD0ED057AF4EEE76AF1EE10FA04
:104B0000FFF62DAFB4EEE77AF1EE10FA3FF627AFDD
:104B1000BD4801261660036021E787680636002F2E
:104B200040F0068150F826709E1D50F82660B7426E
:104B30007FF715AF40698742FFF611AF86423FF716
:104B40000EAFE5E787680636002F40F0F18050F899
:104B500026709E1D50F82660B7427FF600AF406970
:104B60008742FFF4FCAE86423FF6F9AED0E7876895
:104B70000636002F40F0188130F926709E1D30F95E
:104B80002660B7427FF7EBAEB0F914008742FFF61C
:104B9000E6AED3E787680636002F40F0E18030F8B4
:104BA00026709E1D30F82660B7427FF6D8AE808A08
:104BB0008742FFF4D4AED6E787680636002F40F070
:104BC000DB8010F926709E1D10F92660B7427FF732
:104BD000C6AE90F914008742FFF6C1AEAEE7876813
:104BE0000636002F40F0D48010F826709E1D10F875
:104BF0002660B7427FF6B3AE007D8742FFF4AFAECA
:104C0000B1E7062F3FF6ABAEDFE807F0816E5C49F7
:104C10003521040000EB8606D6ED066A00EB83061C
:104C200096ED067AF4EEC76AF1EE10FA7FF597AECC
:104C3000D0ED057AF4EEE76AF1EE10FA3FF68FAEAA
:104C4000B4EEE77AF1EE10FAFFF689AE60E7876816
:104C50000636002F78D150F826709E1D50F8266039
:104C6000B742BFF67CAE406987423FF778AE8642D6
:104C7000FFF675AE4CE787680636002F64D150F812
:104C800026709E1D50F82660B742BFF468AE40699A
:104C900087423FF664AE8642FFF461AE38E787682C
:104CA0000636002F40F0988030F926709E1D30F9AE
:104CB0002660B742BFF653AEB0F9140087423FF703
:104CC0004EAED4E787680636002F40F0918030F86A
:104CD00026709E1D30F82660B742BFF440AE808A31
:104CE00087423FF63CAED6E787680636002F40F095
:104CF0008D8010F926709E1D10F92660B742BFF610
:104D00002EAE90F9140087423FF729AEAFE78768CF
:104D10000636002F54D110F826709E1D10F826601C
:104D2000B742BFF41CAE007D87423FF618AEB2E733
:104D300050F82660002E3FF412AE9E1D50F826005B
:104D400000287FF40CAEE3E650F82660002E7FF4D6
:104D500006AE9E1D50F8260000283FF400AED7E6B0
:104D600030F82660002E3FF4FAAD9E1D30F8260084
:104D700000287FF4F4ADCBE610F92660002E3FF456
:104D8000EEAD9E1D10F9260000287FF4E8ADBFE6C9
:104D900010F82660002E3FF4E2AD9E1D10F82600AC
:104DA00000287FF4DCADB3E630F92660002E3FF436
:104DB000D6AD9E1D30F9260000287FF4D0ADA7E6C1
:104DC00010F82660002E7FF4CAAD9E1D10F8260054
:104DD00000283FF4C4AD9BE630F92660002E7FF436
:104DE000BEAD9E1D30F9260000283FF4B8AD8FE619
:104DF00030F82660002E7FF4B2AD9E1D30F82600FC
:104E000000283FF4ACAD83E6A818002010F9266016
:104E1000002E7FF4A4AD9E1D10F9260000283FF45B
:104E20009EAD75E600232370F8BD00BF30B41C4A68
:104E30001C4D1D4C1D4900232B60136023600B602B
:104E40001B4912680A601B4C1B4A23604FF47A719D
:104E500011601A4C1A491B4A2488097812681A4AA8
:104E60001A4D12681A4A2B6013601A4A1A4C1360C2
:104E70001A4A1B4D13601B4A1B4913701B4A1370BF
:104E80001B4A13601B4A13601B4A13801B4B1C4AAE
:104E90001860012323702B600B8030BC13607047B7
:104EA000981800209C180020A018002070180020DE
:104EB00088180020A418002084180020D2C8FF1FE2
:104EC000D0C8FF1FC8C8FF1FCCC8FF1F90D9FF1F45
:104ED00048E9FF1F00F9FF1F95180020B8080020BF
:104EE000AC180020781800208C180020941800209E
:104EF000801800207C1800208E18002090180020B8
:104F00007418002038B52E4B1B78032B09D8DFE826
:104F100003F0090213022B4A1388012B1BD9013B12
:104F2000138038BD284B29491A8800200870002AB0
:104F3000F7D101221A8038BD254C23683BB921499D
:104F4000244D0A882B60012A09D9013A0A801F4B97
:104F500000221A7038BDBDE83840FFF777BC1A4A06
:104F600013880BB9012313801B480B800368012BA6
:104F700001D1FFF7DDFB19480368012B01D1FFF7D1
:104F8000D7FB17480368012B01D1FFF7D1FB154868
:104F90000368012B01D1FFF7CBFB134A13491368B8
:104FA0000B600133B3F57A7F136005D300231360E0
:104FB000012323602B60CAE7002BC8D1F8E700BFAC
:104FC000781800208E1800208C18002094180020DB
:104FD000701800209C18002090D9FF1F48E9FF1F7F
:104FE00000F9FF1FB80800207C180020801800205E
:104FF0002DE9F04F037887B00390002B58D141F68C
:10500000F872914200F2B780814A02935360814A5C
:10501000814F5360814B824A1960936923F00F03DB
:1050200043F001039361936943F40043936101F0FA
:1050300057FA7C4801F04CFA029BDFF8E8810197AF
:105040004FF0010B0BFA03FB07F500544FF0000A79
:1050500004E0019BA4F500549C422DD365682146D1
:1050600005AB41F6FC724046002DF2D0694EF76860
:1050700047EA0B0CC6F80CC0BAF1000F01D104F5D9
:10508000005A694F51F8049B0026BE6301F03AFABA
:10509000059B9945DDD15E4B5B689D42D9D95C4B40
:1050A0005C4A5D60029B019F9360C2E900A404E03A
:1050B000002007B0BDE8F08F1F46029B0133042B90
:1050C000029307F58047B7D1554A524893698168E2
:1050D00023F00F039361002932D0C368DC075CD44E
:1050E0004C4B9B68012B2BD14A4BDB68590772D480
:1050F000484B9B68032B2BD1464A506800283ED072
:10510000430700F1040177D1414B8B4274D0C11A9F
:105110005A18D2E90045E3E80245404A9342F7D1E4
:105120003C493E4A0B681268181AB0EB420F3F4ADE
:1051300014BF01200020934224D9374B0B6021E09B
:10514000344BDB68980737D4324B9B68022BCBD1AA
:10515000304BDB681A07CFD500F042FA344800F034
:105160007BFA00F045FA202844D12A4AD36823F07C
:105170000803D360C0E7052007B0BDE8F08F264BD9
:1051800090601360264A936923F400439361039B64
:105190000121197007B0BDE8F08F00F021FA1E4818
:1051A00000F05AFA00F024FA202823D1194AD368D3
:1051B00023F00103D36093E700F012FA1D4800F0DA
:1051C0004BFA00F015FA202814D1124AD36823F0C4
:1051D0000203D360B8E700F003FA174800F03CFA86
:1051E00000F006FA202805D10A4AD36823F0040308
:1051F000D3607DE70420C5E7054BC91A043B03F5DE
:105200000054CA5843F8042FA342FAD188E700BFDC
:10521000B0180020D4C8FF1F0000010CB0380020D7
:1052200000200058F888020800000250FFFF010C1F
:1052300000C0010C0040010C0080010C2DE9F04180
:10524000204C071938460D46164602F097FD0038E7
:1052500018BF012046B3691C791A721E02293B4609
:1052600092B223D9052A21D9B108013989B22A1D60
:1052700002EB81022C4654F8041B43F8041B9442B1
:10528000F9D126F00302964293B20DD05A1C92B285
:10529000E95CF954964207D902339BB2A95CB95430
:1052A0009E4201D9EA5CFA54BDE8F0816B1E013FD1
:1052B000154413F8012F07F8012FAB42F9D1BDE8CF
:1052C000F08100BFB8180020002A41D0214B00F126
:1052D000090C9C44A1EB0C0C30B5BCF1020F02F19F
:1052E000FF34A4B229D9052C27D900F1080423449E
:1052F00094088C4603EB840453F804EB4CF804EB5D
:10530000A342F9D122F00304A242A3B214D0124D59
:10531000C4182C5DCC545C1CA4B2A2420CD902333C
:1053200000EB040C9BB215F80CC001F804C09A42C3
:1053300002D918442A5CCA5430BD073018444B1EA9
:10534000214410F8012F03F8012F8B42F9D130BD11
:10535000704700BFB0180020B8180020F0B5494FC2
:10536000494DBB683C6803F540530433B4EB833FBD
:1053700083B06B6800D17BBB444A45494548013343
:105380006B600023936301AB41F6FC7201F0BAF845
:10539000019B2B6004F500562D1B01E0A64217D09F
:1053A00000F01EF96119204600F028F900F020F9FC
:1053B000B0F1004F04F58074F0D13B680320364A09
:1053C00003F50053934288BF344B3B6003B0F0BDFC
:1053D0003B687B600020F2E77B680F22C3F38133D8
:1053E000C7E902327BB100F0FBF82C4800F034F939
:1053F00000F0FEF8202818D1D7E9022323F001039A
:10540000012AFB6005D0FB6899071ED4BB68022BFC
:1054100005D0FB685A070AD4BB68032B02D0FB688F
:105420001B0720D46B683C68A6E70420CEE700F099
:10543000D7F81B4800F010F900F0DAF82028F4D172
:10544000FB6823F00403FB60E6E700F0C9F81548A9
:1054500000F002F900F0CCF82028E6D1FB6823F038
:105460000203FB60D2E700F0BBF80F4800F0F4F84D
:1054700000F0BEF82028D8D1FB6823F00803FB60B9
:10548000D0E700BFD4C8FF1FB018002000000250B2
:10549000B4180020F8880208FFFF010C0000010C7E
:1054A0000080010C0040010C00C0010C72B60C4BD6
:1054B0000C4A9A60BFF34F8F62B6D3F888200A492E
:1054C00042F47002C3F888205A6922F008025A6137
:1054D0004B6923F00F0343F002034B61704700BF99
:1054E00000ED00E0000000080020005808B51C4B4B
:1054F000DB68D80319D51B4BDB69D9072CD51A48B3
:10550000184B1A69520720D599699A699B69C3F3A8
:105510000643C1F303610133C2F3062201FB0333E7
:10552000B0FBF3F302FB033300E00F4B0C4A0F48D0
:10553000D1681269C9B202F0010201310132B3FB34
:10554000F1F3B3FBF2F3036008BD9B6903F07F0343
:105550000133B0FBF3F3E9E7FBF762FAD0E700BFF2
:10556000004600500047005000366E01C05F00202A
:1055700010B50A4B4FF0005203F1040E03F1140C66
:1055800002F184040FCA8EE80F0094E807008CE84B
:105590000700FFF78BFFFBF725FA10BDC05F002067
:1055A0000B4A08B50346106878B10333094923F064
:1055B000030303448B4201D2136008BD02F0F6FBE3
:1055C0000C2303604FF0FF3008BD03481060ECE788
:1055D000B4380020C05F0020283A0020704700BF88
:1055E000024BF522C3F85425704700BF0050000C51
:1055F000014B1869704700BF00200058134A30B4AF
:105600005023F524C2F8544501F1040CC2F8543576
:10561000002351F823505CF82340C2F8F0550233C0
:10562000402BC2F8F445F4D10949AA235524C2F805
:105630005435C1F8A84AA0240649C2F8544503606D
:105640000B69DB07FCD430BC704700BF0050000C76
:1056500000A0000C002000580D4B0E4930B4F52579
:10566000C3F85455AA2255248025C3F85425C1F8FF
:10567000A84AC3F85455C3F854253023064AC1F844
:10568000A84A03601369DB07FCD430BC704700BF35
:105690000050000C00A0000C0020005801F0FC039A
:1056A000034430B501F0030E1C694FEACE0E4FF0F3
:1056B000F80C0CFA0EFC24EA0C041C61446F4D003B
:1056C0004FF0030C0CFA05FC24EA0C044467174C59
:1056D000A04220D092F9004092F800C0002C05DBD7
:1056E00019690CFA0EF20A431A6130BD54688C40F5
:1056F0004460CC0800EB840001F00701046C8900D1
:1057000007258D4024EA05040464127A8A40016C5E
:105710000A430264E4E7046E012505FA01F124EA74
:105720000101016692F800C0DAE700BF008E02486E
:10573000030F03EB4303034A9B0020F07040985093
:10574000704700BF14440050030F03EB4303054AA6
:105750009B009B58034033F0704314BF012000208E
:10576000704700BF0C440050054B06491A69086891
:105770001B6A02F00102904003F00103D840704719
:1057800000460050C05F0020034B044A5B6910686C
:1057900003F00103D840704700460050C05F00206E
:1057A000054AD2F8C4301B07FBD4044AD36823F05F
:1057B00040030343D3607047004000500043005053
:1057C000014B5860704700BF00460050030F03EBC9
:1057D0004303034A9B0020F070409850704700BF7D
:1057E00048460050030F03EB4303054A9B009B58B8
:1057F000034033F0704314BF01200020704700BF06
:10580000404600502DE9F041069E6F4C90461F46E1
:10581000F8B9E06920F4807020F001000129E0610E
:1058200000F08F80684A9369013E23F07F03334381
:1058300093611369D906FCD55369634943F00103A9
